:400000000080002011000000550300005503000008B5054B1A6803F53F5302331A6000F017FC00F09FF900BFFA46004010B5054C237833B9044B13B10448AFF3008001238B
:40004000237010BD4881FF1F000000002C2A0000084B10B51BB108490848AFF300800848036803B910BD074B002BFBD0BDE81040184700BF000000004C81FF1F2C2A00005C
:40008000C880FF1F0000000010B562B600F0CEFA002000F0D9F9002000F0CAF9002000F0BBF9012000F054FA642000F0E3F900F0E9FE00240134E4B204F0010000F0C4F9B5
:4000C000C4F3400000F0B4F9C4F3800000F0A4F94FF4FA7000F0CEF9ECE700BFFEE700BFF0B40022174611E050F82760F3B226F0FF0608E001EB420511F812406D78A55516
:400100000132013BDBB2002BF4D10137122FEBD9F0BC7047064B1B78DBB203F00701054A11701B09013213704422034B1A707047CF0100496E5800407658004008B50A46EE
:40014000002102F066FC08BD08B502F057FC08BD08B502F053FC08BD38B540F2DF12344B1A80182202331A70062203F27E231A7043F21332EE3B1A80023B05221A701B7893
:4001800043F2C82404E04FF4F07000F039FF013C24B1284B1B7813F0800FF4D114B90120FFF79CFF4FF4E262234B1A8001224FF040231A7041F2512203F508731A800024CC
:4001C00019250CE01D4B1B7803F0010343EA440404F003044FF4F07000F012FF013D0DB1032CEFD115B90320FFF778FF144B4FF480721A800321134A1170134A1278D2B2EB
:4002000012490A7007221A700022A1F29B610A704820023108701A7002230D4A1370083A137002F2A132137843F00103137038BD80400040104200402242004025420040CC
:40024000044000400042004008010049A14600400940004038B572B600240CE0314D630019194A0011462A44084691882858FFF765FF0134E4B2062CF0D92A4C04F12C0190
:4002800004F18800FFF72CFF274A137843F0020313701032137843F002031370234D2B7843F040032B70A2F58632513A137843F010031370082204F1D4011D48FFF744FF7D
:4002C000082204F1DC011B48FFF73EFF0A2204F1E4011948FFF738FF082204F1F0011748FFF732FF0A2204F1F8011548FFF72CFF082204F582711348FFF726FF124A137837
:4003000043F008031370114C61232370FFF724FFC1232370FFF7FEFE0E2229460C48FFF717FF38BD302A000003500140A043004002510040C2510040F051004012510040F7
:4003400020510040325100402243004000480040B043004008B502F025FB03680C2B00D1FEE7FEE708B5104E104D16E029686B68AC68002204E051F8040B43F8040B0432D9
:40038000A242F8D1E868002203E0002143F8041B04328242F9D11035013E002EE6D102F007FBFFF771FEFEE701000000082D000008B5104A104B1A60104A136843F40073B4
:4003C000136000230AE0032B03D80D4A52F8231000E00C490C4A42F8231001332F2BF2D90A4B1A780A4B1A70074A0A4B1A60FFF731FF08BD0004FA050CED00E014ED00E0C1
:4004000000000000550300000080FF1FBC760040C080FF1F08ED00E0044A137803F0BF03800100F0400018431070704720510040044A137803F0DF03400100F02000184345
:400440001070704720510040044A137803F0EF03000100F010001843107070472051004001BE7047024A137843F0010313707047F646004010B5044605E0084B186800F0A1
:40048000BFFDA4F50044B4F5004FF6D8034B586800FB04F000F0B4FD10BD00BFCC80FF1F08B5034B1B7A00FB03F000F0A9FD08BDCC80FF1F08B500F0ABFD00BF00BF00BF64
:4004C00000BF00BF00BF00BF00BF00BF00BF00BF00BF00BF00BF00BF00BF064A13889BB243F0040313801388BFF36F8F00F094FD08BD00BF0048004070B504460E46074B57
:400500001D681F2802D90020FFF7AAFF04F01F04103455F8240045F8246070BD08ED00E038B504460D46072902D90020FFF798FF1F2C02D90020FFF793FF04F01F0000F1B2
:40054000604000F564406D01EDB2057038BD00BF044A137803F07F03C001C0B218431070704700BF20510040084A137843F0010313701032137843F00103137002F64D32F4
:40058000137843F001031370704700BFA3430040014B1880704700BF044F0040014B1880704700BF064F0040014B1870704700BF034F004008B51A4A137843F0020313703B
:4005C0000232137803F08F0343F010031370154B1A7802F0CF021A701A7842F030021A701A7802F0F0021A701A7842F00F021A7042F21070FFF7CCFF4FF47A70FFF7CEFF6B
:400600000020FFF7D1FF084A137843F00103137002F65E32137843F00103137008BD00BF004F00400B4F0040A343004008B5054B1B7823B9FFF7BEFF0122024B1A70FFF77E
:4006400093FF08BD6481FF1F002306E0421812F8012C13449BB2013989B20029F6D1584280B2704730B4002306E01C5CE4B2CD5CAC4205D101339BB29342F6D3002000E0F3
:40068000022030BC704700BF004700BF08B58022024B1A70FFF7E6FE08BD00BFFA4600402DE9F04182B00C46164602AF27F8022D01230B7048701546A270130ACB7002F167
:4006C00004081FFA88F12046FFF7BEFF04F80800731DC0F30720E054063517236355F11D96233A4689B2204600F016FC02B0BDE8F08100BF70B505460E461446084B9842B8
:4007000003D010B10020FFF7ABFE002004E0013CAB19E35C1844C0B2002CF8D170BD00BF0080004008B501380B2873D8DFE800F0060F18212A33453C4E576069C1EB0161E0
:400740000B0203F57F3303F57073012167E0C1EB01610B0203F57F3303F2C13304215EE0C1EB01610B0203F57F3303F2C533022155E0C1EB01610B0203F57F3303F2C933AD
:4007800004214CE0C1EB01610B0203F57F3303F57473012143E0C1EB01610B0203F57F3303F2D13301213AE0C1EB01610B0203F57F3303F2D633022131E0C1EB01610B02F3
:4007C00003F57F3303F2D233022128E0C1EB01610B0203F57F3303F5757302211FE0C1EB01610B0203F57F3303F57673042116E0C1EB01610B0203F57F3303F577730121D9
:400800000DE0C1EB01610B0203F57F3303F57873042104E00020FFF723FE02210023012902D11878C0B200E00020022903D11A78587842EA0020042909D11A78587842EA5C
:400840000022987842EA0042D87842EA006008BD08B50A4B1B7803F0C003802B0CD10021064B19700220FFF75DFF28B100210220FFF758FFFFF708FF08BD00BFFA4600407B
:40088000F8B5064601460320FFF74CFF0130070231460420FFF746FF074431460320FFF741FF013000020024254608E003785A1ED2B2FD2A00D801252344DCB20130B84203
:4008C000F4D331460320FFF72DFF01300002C0080F4B9F4201D0FF0808E04FF4004705E000F190431B782344DCB20130B842F7D36442E4B231460120FFF714FF844202D159
:400900001DB90620F8BD0620F8BD0020F8BD00BFC0FF03002DE9F04FADF51F7D054600F0D5FB10B10020FFF79BFD00F0DFFA62B64FF0000A57460A24D0460DB9FF2300E0F5
:400940002B460DF276224FF4967152A800F006FB0DB1013CE4B20CB10028EED1002840F08782BDF87632062B26D99DF84821012A24D19DF84B819DF84A2142EA08284146B5
:4009800008F107029A421BD8B2F5967F1AD84A1D52AB9E5C0A1D9A5C42EA062606315B5C172B11D108F1040189B252A8FFF74CFE86420BD100260AE0042608E0042606E08A
:4009C000032604E0032602E0042600E00826002E40F0E9819DF84C919DF84921A2F13103142B00F2B881DFE813F015007D00B601A5001301B60119012E01A5004001A801E2
:400A0000B601B601B601B601B601B601B601B601B6012600002F00F0C881B8F1000F40F0C7810020FFF72CFFB0FA80F040098DF84C01012215E2002F00F0BD81B8F1030FE1
:400A400004D040F22313984540F0B8819DF84EB19DF84D3143EA0B2BB8F1030F06D0A8F103020DF24F1107A801F0C8FFA9F14003DBB23F2B08D80BF1806303F500631801EE
:400A800010230193802309E0B9F1030F00F299810BEB092318024FF4807301935B4500D80A26002E40F09081019A07A9FFF7DAFD0646002840F08A81B9F1030F00F2888180
:400AC000019B9A4540F2868109F510300BEB0020202207A90B4419464001FFF7C3FD06460022BEE1002F00F07781B8F1010F40F07681B9F1030F00F27581C04B1B681B689E
:400B0000C3F30742914502D1C3F3072305E0914501D9002301E04FF480738DF84C311B0A8DF84D31FF238DF84E3100238DF84F31042296E1342A15D1002F00F05681B8F166
:400B4000030F40F05581A9F14003DBB23F2B02D84FF0100A01E04FF4907A5246002107A801F057FF002F00F04681B8F1020F40F24F81A8F103020DF24F1107AB03EB0A0030
:400B800001F03CFFC2441FFA8AFAAAF1030A1FFA8AFAA9F14003DBB23F2B05D800F01CFB80234FF0100803E04FF480734FF49078D04540F030819DF84EA19DF84D2142EA62
:400BC0000A2A534500D80A26002E40F02981B9F13F0F0FD80AEB092292B2884B1B681968C1F30F2311F0FF0F01D001339BB2934200F21881434607AA5146484600F070FA9F
:400C000000B10A26FFF756FC4FF0000A524628E1002F40F02B810426002222E1002F00F0068108EB0A03B3F5967F00F20381424653A907AB03EB0A0001F0E0FEC2441FFA52
:400C40008AFA00220DE1B8F1000F40F0F68004AB6B4A92E8030083E8030053AA82E803004FF0000A01270822FBE0002F00F0E880B8F1030F40F0E7809DF84EB19DF84D31D3
:400C800043EA0B2BA9F14003DBB23F2B10D84FEA0B11BBF17F0F01D8334600E00A23002B40F0D48010225748FFF724FD019011E00BEB09210902BBF1FF0F01D8334600E0F7
:400CC0000A23002B40F0C5804FF480720020FFF711FD0190B9F13F0F0FD809F510320BEB02225201002306E0995C01980144C9B2019101339BB21F2BF6D9B9F1030F16D18B
:400D0000BBF1FF0F13D100210520FFF70BFDC0B2019BC0EB03095FFA89F900210620FFF701FDC0B2C0EB09095FFA89F30193019B5B428DF84C31012293E00020FFF7A0FDDA
:400D400010B98022304B1A7000F0DCF8FFF78AFB0426002285E02D4B1B68002B7CD0002F7DD08DF80820ADF80A8053AA0392002104910591069204A902A89847BDF81420B4
:400D8000B2F5937F03D3069953AB994205D0069B03B92AB99DF8106063E00E26002260E00E2600225DE000225BE00426002258E00426002255E00426002252E0042600227A
:400DC0004FE0092600224CE000224AE0002248E0002246E0002244E00426002241E0042600223EE0042600223BE00426002238E00426002235E00426002232E0DC80FF1F48
:400E00003C2B000000800040FA4600406881FF1F0426002225E04FF0000A0326524620E000221EE04FF0000A0A26524619E00426002216E00326002213E00426002210E0C3
:400E4000042600220DE0042600220AE01E46002207E01E46002204E00526002201E00526002252A93046FFF71BFC01E04FF0000A002D3FF462AD002F7FF45FAD0DF51F7D4E
:400E8000BDE8F08F38B50020FFF7FAFC08B1062400E00024134D2B681A6800210846FFF729FC6B681B78C01AC0B24042C0B2834202D12B681B6813B90020FFF7D1FA0A4BD9
:400EC0001B7803F0C003402B00D024B10020064B1870FFF71FFD1E20FFF71CFDFFF7D6FB38BD00BFDC80FF1FFA46004008B562B60221002000F09CFB0122014B1A7008BD6F
:400F00006C81FF1F08B500F0D7FB08BD08B5012000F0AAFC08BD00BF70B50E46154603EB83035C00A4B240220146022000F052FC04E00120FFF79EFA013CA4B2022000F02F
:400F40002BFC08B9002CF4D1022000F025FC10B12E80002070BD102070BD00BF2DE9F04180460E46174603EB83035C00A4B2402900D94026204B1B7833B916E00120FFF70A
:400F800079FA013DADB200E0254600F0EFFB08B9002DF3D100F0EAFBA8B100F0EDFBFFF7B5FF0022144B1A700DE000F0E5FB50B100F0DCFB38B1FFF7A9FF04E00120FFF788
:400FC00059FA013CA4B2012000F0E6FB012801D0002CF3D1012000F0DFFB012807D13246414600F057FC38800020BDE8F08100233B801020BDE8F0816C81FF1F00000000E4
:401000000230800803D000BF01380046FCD17047EFF3108072B6704780F31088704700BF10B500F003F900F0B1F910BB012000F08FF9072818D102210F4800F009F9022832
:401040000AD102E00120FFF72BFA0C4B1B7813F0020FF7D0002409E0084B1B7813F0020FE9D04FF0FF3401E04FF0FF3400F0B4F900E00424204610BD8081FF1F224700408D
:4010800010B500F0D3F800F081F9D0B900F0C0F90446072812D102E00120FFF701FA0A4B1B7813F0020FF7D0074B1B7813F0020F04D0054B1B789B0800D1002400F08CF944
:4010C00000E00424204610BD2247004008B5FFF7D7FF034610B9FFF7A3FF0346184608BD2DE9F041441FE4B23A2C01D9002500E0012510F0800F00D00125412800D90125D5
:401100003F2803D8B1F5807F06D808E0802900D90125102B02D102E0012500E0012502B90125002D50D1984616460F46044600F02DF9002847D1434632463946204600F00A
:40114000A1F8064607283AD102E00120FFF7A8F91F4B1B7813F0020FF7D01D4B1B7813F0020F06D01A4B1B789B0805D04FF0FF3603E04FF0FF3600E02E4606BB154A53787F
:4011800012783946204600F0BDF8072804D0064615E00120FFF784F90D4B1B7813F0020FF7D00B4B1B7813F0020F06D0084B1B789B0804D04FF0FF3601E04FF0FF3600F094
:4011C0000BF9354600E004252846BDE8F08100BF224700408081FF1F08B5FFF719FF0F4A137843F0080313701032137843F008031370C8220A4B1A700A4A137843F0100370
:4012000013701032137843F010031370064B1B7813F0200FFAD0FFF7FFFE08BDA043004001470040AC4300400047004008B5FFF7EFFE064A137843F0080313701032137893
:4012400043F008031370FFF7E7FE08BDA043004070B506460D4600240CE00120FFF720F9064B1B7813F0010FF7D0054B1B7833550134E4B2AC42F3D3204670BD2247004002
:401280002047004070B41D4C247814F0020F2CD01B4CB6252570D5252570022525700234247814F0020F22D1154C2070002404E0165D134D2E700134A4B29C42F8D3B3F50B
:4012C000807F16D13F2816D800F5103001EB00214801002305E01A5CD2B209490A7001339BB21F2BF7D9072006E0042004E0092002E0072000E0072070BC704722470040E5
:401300002047004030B4104C247814F0020F15D00E4CB6252570D8252570052525700234247814F0020F0BD1084C2070080A2070C9B2217022702370072002E0042000E08E
:40134000092030BC704700BF22470040204700400C4B1B7813F0020F0FD00B4BB6221A70E1221A700E221A7002331B7813F0020F05D1054B1870072070470420704709204A
:40138000704700BF224700402047004010B5FFF73FFE0F4B1B78A3B901220D4B1A700D4B1B6813F0010F0ED00A4A136823F00103136000BF00BF00BF0122054B5A6000246E
:4013C00002E0042400E00024FFF726FE204610BD7081FF1F0400084008B5FFF719FE0A4B00221A705B68012B0AD1084A136843F00103136000BF00BF00BF0022024B5A60C5
:40140000FFF70AFE08BD00BF7081FF1F04000840074B1B7813F0020F08D0064BB6221A70E0221A700D221A7007207047042070472247004020470040F8B5FFF7E9FD064628
:401440003C4A137843F0010313701032137843F0010313700125384B1D700227943B1F7002F5E2521B32137803F07F0313700020FFF716F8314C237803F0F9032370304A2A
:40148000137803F0DF03137023782B4323702846FFF706F82820FFF703F82A4B1A7802F07F021A701A7802F0BF021A7023783B4323703846FEF7F4FF237843F004032370C5
:4014C0000024214B1C7001331C703046FFF7A4FD07211720FFF724F81C491720FFF70CF807211820FFF71CF819491820FFF704F807211520FFF714F816491520FEF7FCFF23
:4015000007212046FFF70CF813492046FEF7F4FF07212846FFF704F810492846FEF7ECFF07210C20FEF7FCFF0D490C20FEF7E4FFF8BD00BFA54300409D60004094430040BC
:4015400012600040F851004084600040C11D0000E51B0000BD1D0000591D0000891D00005920000010B5002304E00124234AD4542344DBB2002BF8D0214B18700023214AD0
:401580001370214A1370214A1370214A1370214A1370214A1370214A1370214B4FF400021A604FF080721A604FF400121A6001221A6002221A6011B1012906D00BE0194A24
:4015C000137803F0FE0313700AE0164A137843F00103137004E0134A137803F0FE0313700322114B1A708022203B1A700120FFF707FD04220D4B1A7010BD00BF2482FF1F12
:401600009881FF1F9E81FF1F9C81FF1F9D81FF1F9981FF1F8481FF1F9B81FF1F1482FF1F00E100E009600040286000401260004038B504460D46064B1B7823B9FFF7FCFE58
:401640000122034B1A7029462046FFF78BFF38BD7881FF1F002304E001210E4AD1540B44DBB2002BF8D000230B4A13700B4A13700B4A13700B4A13700B4A13700B4A137066
:401680000B4A137003220B4B1A708022203B1A70704700BF2482FF1F9E81FF1F9C81FF1F9D81FF1F9981FF1F8481FF1F9B81FF1F1482FF1F2860004008B5FFF7A9FC214A04
:4016C000137803F07F0313700A32137803F0FB031370A2F5E3520D3A137803F0FE0313701032137803F0FE031370174B1A7842F080021A701A7842F040021A70FFF78CFC93
:40170000124B4FF400021A604FF080721A604FF400121A6001221A6002221A6001F00EF94FF480520A4B1A6000230A4A13700A4A13700A4A13700A4A13700A4A13700A4A52
:40174000137008BD08600040F851004080E100E080E200E09C81FF1F9D81FF1F9981FF1F8481FF1F9B81FF1F7881FF1F014B1878704700BF9D81FF1F064B1B7813F0FF0FC7
:4017800005D0044B1878C0B200221A7070470020704700BF9C81FF1F00EB40008300024A13445878704700BFA881FF1F431EDBB2072B0BD8064B00011A18185C00F00F00F7
:4017C000537843EA0020023880B2704700207047FC5F0040431EDBB2072B3CD8F0B4074600EB4004A3001C4C2344DB889BB2C3F500739A4208D900EB400293002344DA8855
:4018000092B2C2F5007292B200EB4004A300124C2344DB7843EA1223104D04012E192B55D3B2737039B909E0CE5C3D010C4C665501339BB200E000239A42F5D8420002440F
:401840009300054A134400225A705A79D2B20001044B1A54F0BC7047A881FF1FFC5F004078600040FE5F0040431EDBB2072B0BD8420002449300054A134400225A705A79B1
:40188000D2B20001024B1A54704700BFA881FF1FFE5F004070B5D9B1054614460E46C8B1082819D8FFF782FFA04203D22846FFF77DFF0446002305E02901094A525CF2547B
:4018C00001339BB2A342F7D32846FFF7CDFF04E0002402E0002400E00024204670BD00BF786000401D4B19781D4A13889BB20B449BB2138000220FE01A494B681B78DBB24E
:40190000194883544B6801334B600132D2B20B889BB2013B9BB20B80124B1B889BB20BB1072AE9D90D4B1B78DBB2082B00D05AB10E490B7883F080030B700F210C4B197055
:4019400002210C4B197004E0022309490B7009490B70094B1A70014B1A7070471482FF1F1A82FF1F8C81FF1F006000409A81FF1F8581FF1F9E81FF1F1582FF1F0222074B58
:401980001A708022064B1A700F22064B1A700023054A1370054A1370012070479E81FF1F9A81FF1F8581FF1F1482FF1F1582FF1F08B5FFF797FF08BD10B4194B197801F0BA
:4019C0000F010239C9B2174A13889BB20B449BB21380002011E0144A5468144B1B5CDBB223705368013353600130C0B20139C9B213889BB2013B9BB213800B4B1B889BB244
:401A00000BB10029E7D10A4B19700A4A137883F0800313700B22084B1A7010BC704700BF296000401A82FF1F8C81FF1F006000401582FF1F9A81FF1F8581FF1F0623064AAE
:401A40001370064A13708022054B1A700022054B1A700120704700BF9E81FF1F8581FF1F9A81FF1F1582FF1F064B9B6843B1054B9A6810709A6804490988518000229A60CB
:401A8000704700BF8C81FF1F1A82FF1F08B5134B1A78D2B21A701B78DBB213F0800F02D00F4A137008BD0220FFF7DEFF0D4B1B7803F06003202B05D0402B06D043B900F068
:401AC00075FD06E000F042FF03E000F019FF00E0002010B90322024B1A7008BD286000408581FF1F0060004008B5094B1978094A13889BB20B449BB213800022064B1A7053
:401B00000120FFF7B1FF0322044B1A7008BD00BF1482FF1F1A82FF1F9E81FF1F8581FF1F08B50B4B1B78DBB2042B06D0062B07D0022B0BD1FFF7D8FF08BDFFF73DFF08BDBB
:401B40000320FFF791FF0322024B1A7008BD00BF9E81FF1F8581FF1F08B50022044B1A700120FFF781FF0322024B1A7008BD00BF9E81FF1F8581FF1F08B50B4B1B7813F002
:401B8000FF0F07D0084A137843F0800307490B70002313700022064B1A700120FFF764FF0322044B1A7008BD8481FF1F086000409E81FF1F8581FF1F08B5094B1B78DBB2A5
:401BC000042B06D0062B07D0022B07D1FFF7F0FE08BDFFF7C1FF08BDFFF7CEFF08BD00BF9E81FF1F08B5284B1B78DBB213F0100F48D013F0800F0CD003F00F03012B16D11B
:401C0000FFF744FF214B1B7813F0800F11D1012312E013F0400F03D0FFF7CEFF01230BE013F0200F07D0FFF77BFF012304E0002302E0002300E0002323B3134B1B7813F075
:401C4000800F1FD1124B1B78124A12781343124A13701278D2B2934214D10C4B1B78DBB2094A127812F0800F07D1084B1B78DBB2054A1370137803F00F03044A1278D2B224
:401C80009342EAD108BD00BF286000408581FF1F9A81FF1F1582FF1F296000400022064B1A80064B9B682BB1044A916800230B7092685380704700BF1A82FF1F8C81FF1F23
:401CC00008B50F4B1B889BB213B9FFF757FE15E002220C4B1A7000220B4B1A70FFF7DEFF0A4AD179937943EA0123054A128892B2934201D2024A1380FFF7F4FD012008BD7B
:401D00008C81FF1F9E81FF1F9A81FF1F0060004008B504220B4B1A7080220B4B1A70FFF7BDFF0A4AD179937943EA0123084A128892B2934201D2064A13800B22054B1A70AE
:401D4000012008BD9E81FF1F9A81FF1F006000408C81FF1F8581FF1F0122094B1A700F3B9B7C084B1B7B03F00303934204D0054AD37B83F08003D3730122024B5A7370475E
:401D80000B600040A881FF1F02220A4B1A700F3B93F82230084B1B7E03F00303012B04D0054AD37E83F08003D3760122024B5A76704700BF0B600040A881FF1F704700BF25
:401DC00008B5FFF747FC08BD08B50C4B18780138C0B200F097F90A4B1B79DBB29A1C00EBC20042680749CB5C02EBC3035B68596A0B78054A1380516008BD00BF9D81FF1F50
:401E0000006000408881FF1F8C81FF1F08B50E4B18780138C0B200F075F90C4B1B79DBB29A1C00EBC20042680949CB5C02EBC3035B68DB69597813F8022B42EA01220549A3
:401E40000A804B6008BD00BF9D81FF1F006000408881FF1F8C81FF1F10B50022194B1A80194B18780138C0B200F04CF9174AD3781279D2B2911C00EBC10041680ABBDBB2B3
:401E80001348825C01EBC20149685A1ED2B2022A17D803F10053013B01EBC3000B4A9278D2B211F833309A420BD8406802EB4202910042185468034B5C60415A198092687A
:401EC0009A6010BD8C81FF1F9D81FF1F006000408881FF1F08B55B4B1A79D2B21B7813F0800F4DD0574B5B78013B052B00F28D80DFE803F0212B3B8B8B03524BDB78DBB27A
:401F0000212B09D1FFF760FF4F4B1B889BB2002B7DD0FFF7D5FE08BD4A4BDB78DBB2222B77D1FFF773FF484B1B889BB2002B72D0FFF7C6FE08BDFFF78FFF434B1B889BB2B3
:401F4000002B6AD0FFF7BCFE08BD002A67D13D4B9B7813F0FF0F64D13B4901230B803B4B1A444A60FFF7ACFE08BD002A5BD1364901230B80364B1A444A60FFF7A1FE08BDB7
:401F8000304B5B78DBB20A2B0DD00B2B2FD0092B4BD1FFF761FF2C4B1B889BB2002B46D0FFF7B6FE08BD002A43D1264B9B7813F0FF0F40D1234BDB78DBB224498B54895CDF
:401FC000C9B2244B9B5CDBB2994203D20021214B995409E01F4B9B5CDBB2012B04D91B4B9B5CDBB21B498B54FFF728FD08BD22BB144B9B78DBB2012B21D8124B9B78DBB25E
:4020000013498B54FFF71AFD08BD002008BD002008BD002008BD002008BD002008BD002008BD002008BD002008BD002008BD002008BD002008BD002008BD002008BD0020D2
:4020400008BD00BF006000408C81FF1F1C82FF1F2482FF1F2082FF1F08B500F06FFC08BD10B401233EE019461A010C242148845403EB4300820020480244527912F0FF0FC7
:4020800013D003EB430082001B480244127912F0800F04D01801194A024494700AE01801164A02440820907004E01801134A0244802090704800084482000F480244D4880B
:4020C000E4B208010B4901448C71D088C0F30720C871D088C0B20871D288C2F307224A710133DBB2082BBED9FF22054B1A7010BC704700BF70600040A881FF1FFC5F004050
:402100000A600040074B1A78074B03EBC2035B681A7C824204D9C0001030184440687047002070479881FF1F802B0000F8B5404B1B7813F0FF0F79D03D4B18780138C0B2B6
:40214000FFF7E0FF047AC2683A4B1878C0B200236AE01178884264D13749095CC9B25578A9425ED1917801F07F01D67806F00306DFF8C8E04D000D44AF000EEB07054FF048
:40218000000C85F803C092F802C085F804C092F803C00EF807C097882F8192F90250002D0DDA012E01D1072700E00D274E000E44B500224E35446F7101266E700CE0012EEB
:4021C00001D1052700E009274E000E44B5001B4E35446F7100266E70DFF868E00F010EEB07060125B57001FA05F529448D00134929440D89C5F307250EF807500D89EDB272
:402200007570CE88F6B20E4D3D44AE71CE88C6F30726EE71CE88F6B22E71C988C1F30721697108320133DBB2A34292D3F8BD00BF9D81FF1F9981FF1F8881FF1FA881FF1FE6
:4022400070600040FC5F0040034B1A78034B03EBC2035868704700BF9881FF1F802B000008B5084B18780138C0B2FFF74BFF30B142681279023200EBC203586808BD002090
:4022800008BD00BF9D81FF1F2DE9F041002310E06A4D5900CA189600AC190022AA55A270E2702281A272627034462C4462710133DBB2082BECD940B90AE000226049CA5467
:4022C0006049CA540133DBB200E00023002BF4D05D4B1B7813F0FF0F00F0AD805A4B18780138C0B2FFF70EFF4368DB7913F0400F05D0564A137843F00103137004E0534A8C
:40230000137803F0FE031370057A012464E0C16800235DE08A7802F07F02944255D1264604EB4407BA00454F3A44128992B28F88BA4207D204EB440E4FEA8E02DFF8FCE0BF
:40234000724417810A783E4FBA5CD2B24F78BA423BD191F802C0DFF8E4E07200324497000EEB070282F804C0CA780EF80720CA7802F0030291F90270002F13DA012A02D134
:402380004FF0070801E04FF00D08DFF8B0E0720002EB060C4FEA8C07774487F8058001267E7012E0012A02D14FF0050801E04FF00908DFF888E0720002EB060C4FEA8C0739
:4023C000774487F8058000267E7008310133DBB2AB429FD30134E4B2082C98D9C06800220CE0837803F07F0310F8084B03EB43039900124B19448C720132D2B2AA42F0D355
:40240000FFF72EFF124B1860002301210FE00B4D4A00501884002C44E380228992B213449BB203F0010213449BB20131C9B20829EDD9FFF715FEBDE8F08100BFA881FF1F19
:402440008881FF1F1882FF1F9D81FF1F9B81FF1FA481FF1F08B5154B1B7903F07F035A1ED2B2072A20D8590019448A0010490A44917841F0010191700021D170517841F0F9
:4024800002015170127912F0800F05D01B01094A1A448D23937004E01B01064A1A4489239370FFF7CBFA08BD002008BD00600040A881FF1FFC5F0040264B1B7903F07F0329
:4024C0005A1ED2B2072A43D810B5590019448A0021490A44917801F0FE0191700021D17019017F241D484454517801F0FD015170127912F0800F14D003EB43018A0016492D
:402500000A445278D2B2012A05D11B0102461A440C23937019E01B01104A1A440D23937013E003EB43018A000B490A445278D2B2012A05D11B01094A1A440823937004E08B
:402540001B01064A1A4409239370FFF777FA10BD0020704700600040A881FF1FFC5F004010B50E4B1C79E4B20D4B18780138C0B2FFF7C8FD43681B799C4201D9012C0AD838
:40258000084A135DDBB208490B55044B9B78DBB21355012010BD002010BD00BF006000409D81FF1F8881FF1F1882FF1F10B5944B1B78DBB20021934A118013F0800F00F09A
:4025C000AF808F4A5278D2B20A2A00F27581DFE812F06B00730173017301730173010B007301940073019C00854BDB78DBB2012B09D1FFF729FE4268824B5A6012221A80FC
:40260000FFF75EFB10BD7E4BDB78DBB2022B13D17B4B9878FFF776FD002800F04F814268784B5A605A68D1785A68927842EA01221A80FFF745FB10BD714BDB78DBB2032BE9
:4026400005D02EE00A7811440133DBB201E000236D496B4A9278D2B2934203D20A7812F0FF0FEFD1664B9B78DBB2EE2B00D16749634B9B7813F0FF0F07D0614B9B78DBB206
:40268000634A127C934200D162490B7813F0FF0F00F016810B785B4A13805160FFF710FB10BD00F053F910BD13F0030317D0022B40F0088153490B80514B1B7903F07F038E
:4026C00003EB43039A00544B1A449278D2B2534B1A7000225A704B60FFF7F2FA10BD494902230B804E4B1A78D2B24C4B1A7000225A704B60FFF7E4FA10BD424B01221A807F
:40270000484A5A60FFF7DCFA10BD3E4A012313803B4B1B7944490B445360FFF7D1FA10BD374A5278013A0A2A00F2CE80DFE812F04C00CC009700CC000B00CC00CC00CC0091
:402740001300CC0030002E4B9B78DBB2374A1370FFF774F910BD2A4B9B7803F0FF041BB1601EC0B2FFF7CEFC04B110B9002C40F0AD802C4B1B78DBB29C4206D0294B1C70B1
:4027800001202B4B1870FFF77FFDFFF757F910BDFFF7E6FE002800F09B80194A1379DBB21279D2B223490A70234AD25CD2B21E49CB5CDBB29A4204D001221D4B1A70FFF702
:4027C000B5FCFFF73BF910BD03F00303012B35D04BB1022B7ED10A4B9B7813F0FF0F7BD1FFF76AFE10BD064B9B78DBB2012B75D10B4A137803F0FD031370FFF71FF910BD0B
:40280000006000408C81FF1F502C00006C2B0000D02C0000442C0000A881FF1F7C81FF1F9B81FF1F9D81FF1F8881FF1F8481FF1F9C81FF1F9981FF1F1882FF1F2D4B1B79F5
:4028400013F0FF0F4CD12B4B98781B79DBB22A49CA5C22EA0002CA54FFF7F0F810BD03F00303012B17D04BB1022B3BD1214B9B7813F0FF0F38D1FFF7EDFD10BD1D4B9B7811
:40288000DBB2012B32D11D4A137843F002031370FFF7D4F810BD174B1B7913F0FF0F27D1144B98781B79DBB21349CA5C22EA0002CA54FFF7C3F810BD002010BD002010BD8B
:4028C000002010BD002010BD002010BD002010BD002010BD002010BD002010BD002010BD002010BD002010BD002010BD002010BD002010BD00600040A081FF1F9B81FF1FB6
:4029000008B50B4B1B7813F0800F0CD0084B5B78DBB2012B09D1074B074A5A6012781A80FFF7CEF908BD002008BD002008BD00BF006000408C81FF1F442B0000024B187827
:40294000C0F38010704700BF8F45004008B5124B1B7803F00303012B02D0022B04D00FE00D4B1B79DBB20CE00B4B1B7903F07F0303EB43039A00094B1A44937ADBB200E038
:402980000023074A1268D35C032B02D1FFF7A2FA08BD002008BD00BF00600040A881FF1FA481FF1F014B1868704700BF4481FF1F0E4B70B51E460E4C0025E41AA410A542B5
:4029C00004D056F8253098470135F8E700F08AF9084B094C1E46E41AA4100025A54204D056F8253098470135F8E770BDF02C0000F02C0000F02C0000F82C000010B5431EF9
:402A00000A44914204D011F8014B03F8014FF8E710BD03460244934202D003F8011BFAE770470000002E00008B00000000000000004F00400C0040510040300000000140DA
:402A4000001000140140000800400140000A004C0140000200500140200000007E020A4B11507C40EE08AF20B820BE10D804DF011F20E810EE0AE810EE0A33803640CC30C1
:402A8000A640A7806302A640A780D6401810A640A780AF01C610EE106080D8029C8008080F409C80C20CAE40AF80B410EE50AC08AF40B480E808000A01450040014F0040A3
:402AC000025200400107014001090140040A0140010B014002170140021901400340014002410140044201400643014002450140014601400447014004480140044C014089
:402B00000151014000EFEF000000000000CFCF00000000004000003C3C000000C000000000FFFF0000000000F00000FFFF0050000000000000FBFB00000000006910162E1F
:402B4000003201012800000000010400010000000000000000014359555342000000303030303100000000000000000012034D00530046005400310030003000010000009A
:402B800001000000882B000001000000D02C0000000000000000000001000000A02B000001000000A42C000002000000C42B000001000000D42B000000000000C02B0000EB
:402BC000030000000000010340000300000082034000030001000000DC2B000000000000102C000000000000042C00000000000000000000010000001C2C00000100000005
:402C0000B62C0000410000007082FF1FB482FF1F410000002C82FF1F2882FF1F240005010900A1000900A1000900150025FF7508954091020900150025FF7508954081027C
:402C4000C0C000000A0330003000300031000000040309042C0343007900700072006500730073002000530065006D00690063006F006E0064007500630074006F0072005B
:402C80002203500053006F0043003300200042006F006F0074006C006F006100640065007200000009022900010100801909040000020300000209211101000122240007CF
:402CC000050103400001070582034000010000001201000200000008B4041DB70130010280014300F8B500BFF8BC08BC9E46704751000000B1030000F8B500BFF8BC08BCAF
:402D00009E4670472D000000182D0000C880FF1F8000000070010000000000000000C05D80BB000030000000006CDC02242A0000282A0000000000000000000000000000BD
:402D40000000000000000000000000000000000000000000E22C00000000000000000000000000000000000000000000000000000000000000000000000000000000000045
:402D80000000000000000000000000000000000000000000E480FF1F0000000000000000000000000000000000000000000000000000000000000000000000000000000091
:402DC00000000000000000000000000000000000000000000000000000000000000000000000000000000000000000000000000000000000000000000000000000000000D3
:402E000000800020112E0000893D0000893D000008B500F0D9FF00BF10B5054C237833B9044B13B10448AFF300800123237010BD9881FF1F00000000F48A0000084B10B574
:402E40001BB108490848AFF300800848036803B910BD074B002BFBD0BDE81040184700BF000000009C81FF1FF48A0000C880FF1F00000000024A136801331360704700BF21
:402E8000B481FF1F10B5094C682363700023A370074BE361074B2362074B6362204600F0C3FC204600F0EEFC10BD00BF0883FF1F813A0000D13A00000D3B000008B50948E7
:402EC0000B234371052383710223C371112202710D2242738373C3731523037300F026FD08BD00BF0883FF1F08B50249012000F073FD08BD0883FF1F08B50249024800F09E
:402F00009DFD08BD0883FF1FB881FF1F08B5044B044A0549072000F02BFD002008BD00BF0883FF1FF881FF1FEC81FF1F08B501F061FD20B101F058FD08B101F047FE08BD05
:402F40002DE9F04F8FB001F03BF803F011FB0446574B186803F00CFB01464FF07E5003F013FC0146204603F05BFB524B986001F0C9FE0028FBD04F4C206803F0F9FA4E4908
:402F800003F002FCA16803F043FA83464B4CB4F9000003F0F1FA4FF0605103F041FB4FF0814103F03DFB0546B4F9020003F0E4FA4FF0605103F034FB4FF0814103F030FBB5
:402FC0000646B4F9040003F0D7FA4FF0605103F027FB4FF0814103F023FB0746384CB4F9000003F0C9FA4FF0605103F019FB354903F016FB8046B4F9020003F0BDFA4FF0EE
:40300000605103F00DFB2F4903F00AFB8146B4F9040003F0B1FA4FF0605103F001FB294903F0FEFA8246584602F086FFCDE90C01254C504602F080FFCDE90A01484602F0C9
:403040007BFFCDE90801404602F076FFCDE90601384602F071FF14A3D3E9002302F0C0FFCDE90401304602F067FF0FA3D3E9002302F0B6FFCDE90201284602F05DFF0AA363
:40308000D3E9002302F0ACFFCDE90001DDE90C230E49204604F0C4F8204601F0E3FD0FB0BDE8F08FAFF3008005A3923A019D2340DC80FF1FB481FF1F00007A44EC81FF1FB4
:4030C000F881FF1F0000FA430482FF1FF88A000010B562B60121002001F04EFC01F076FD01F0D6F8FFF7CEFEFFF7E8FEFFF7FCFE01F07AF8002000F0D9FE002000F0CAFEA9
:40310000002000F0BBFE012001F028FB642000F0DBFE00F0BBFF1249002000F0C5FF00F033FF0024FFF7F2FEFFF7E6FEFFF7FEFEFFF706FF0134E4B204F0010000F0B6FE14
:40314000C4F3400000F0A6FEC4F3800000F096FE01F010FB00B900240A2000F0B5FEE1E7752E000040B1C2694AB1026A52B1436A5BB94FF0FF3070474FF0FF3070474FF028
:40318000FF3070474FF0FF3070470020704700BF0222C271082343711021017103218171C2734373142303730023837343688360C3680361704700BF4B790F2B0BD84A7A96
:4031C00093420BD0027802F0F00203F00F0313430370002070476FF00300704700207047CB79022B08D8CA7A934208D0037803F08F030370002070476FF003007047002067
:40320000704700BF8B790C2B0BD88A7A93420BD0027802F0F00203F00F0313430370002070476FF003007047002070474B7B0D2B0BD84A7C93420BD0027802F0F00203F0AB
:403240000F0313430370002070476FF00300704700207047CB7B022B09D8027802F0CF021B0103F0300313430370002070476FF0030070478B7B042B0BD88A7C93420BD052
:40328000027802F0F80203F0070313430370002070476FF003007047002070472DE9F04100AF14469E4693F82A3013449BB2DA1D22F00702ADEB020DBEF1000F20D00E46A3
:4032C0006D46DEF81C80B8F1000F1CD0F4B19EF80220012A01D140F080002A4601469EF80100C047014638B16FF0010110E0EA5CF25401339BB200E00023A342F7D307E07F
:403300004FF0FF3104E04FF0FF3101E06FF00B010846BD46BDE8F08138B504460D460B46022201464020FFF7B9FF034680B929462046FFF741FF034650B929462046FFF71A
:403340004FFF034620B92946601CFFF75BFF0346184638BD38B504460D460B46022201464220FFF79BFF034680B929462046FFF75DFF034650B929462046FFF76BFF034655
:4033800020B92946601CFFF775FF0346184638BD00B583B002A9002301F8013D034601220220FFF77BFF9DF80730C3F34303012B06D0022B07D0032B08D0072B0BD108E08E
:4033C0006FF0050007E06FF0060004E06FF0070001E06FF0080003B05DF804FB30B585B005460C460023019302938DF80C301346821D01A91220FFF751FF48BB02469DF8C6
:4034000005301B021BB29DF804100B4323809DF807301B021BB29DF806100B4363809DF809301B021BB29DF808100B43A380032D0BD19DF80A009DF80B309DF80C10090432
:4034400041EA03230343A36004E00023A36001E06FF00102104605B030BD00BF10B584B00C4613460021009101910291CDF80B1010BB062269460C20FFF710FF0146002811
:4034800046D19DF801301B021BB29DF80020134323809DF803301B021BB29DF80220134363809DF805301B021BB29DF804201343A3800023A36030E002460C3269460C2078
:4034C000FFF7ECFE014630BB9DF801301B021BB29DF80020134323809DF803301B021BB29DF80220134363809DF805301B021BB29DF804201343A3809DF80C009DF80D3061
:403500009DF80E20120442EA03230343A36004E06FF0010101E06FF00101084604B010BD70B584B006460D4614460022009201920292CDF80B2000F10C0269460C20FFF7D4
:40354000ADFE002843D102469DF801301B021BB29DF800100B4323809DF803301B021BB29DF802100B4363809DF805301B021BB29DF804100B43A3809DF807301B021BB2C8
:403580009DF806100B432B809DF809301B021BB29DF808100B436B809DF80B301B021BB29DF80A100B43AB80032E0CD19DF80C009DF80D309DF80E10090441EA032303430F
:4035C000AB60A36005E00023AB60A36001E06FF00102104604B070BD2DE9F843002B34D00546894690461E461C6A002C30D0002A31D09B78012B01D100F07F05337A112B0E
:4036000002D0337C152B19D143464A4629467078A0470746736A0120984714E0376A012309EB040229467078B84707460135EDB2736A012098470134E4B201E00024274619
:40364000A3B29845EAD85FB108E04FF0FF3707E04FF0FF3704E06FF00B0701E06FF001073846BDE8F88300BF10B582B0044602A8002320F8043D2146FFF74EFE0346B0B9D1
:403680002346012201A94020FFF7A6FF034670B963796372E379E372234601220DF105014120FFF799FF034608B9A279A272184602B010BD10B582B0044602A8002320F84A
:4036C000043D2146FFF746FE0346B0B92346012201A94220FFF780FF034670B9637B6374E37BE374234601220DF105014320FFF773FF034608B9A27BA274184602B010BDD8
:4037000030B583B004460D4600238DF807300B46012201464020FFF7C1FD034628BB2A79122A14D1237863F07F0323702B46012221464020FFF750FF0346B0B92B4602224C
:403740000DF107015820FFF747FF03460DE0227812F0800F09D002F07F0222702B46012221464020FFF738FF0346184603B030BD30B583B000238DF807300279A2F1100369
:40378000DBB2022B1AD8037A9A421AD0044601460DF10700FFF7B4FF054698B923460122211D7E20FFF718FF0546237A102B02D1636A052098472379237203E06FF0030588
:4037C00000E00025284603B030BD00BF38B5027BA2F11403DBB2012B01D9172A1DD1037C9A421DD004460346012200F10C017E20FFF7F2FE0546237C142B03D1636A512066
:40380000984707E0172B05D1237B152B02D1636A0A209847237B237403E06FF0030500E00025284638BD00BF30B583B0B6238DF80730F0B10446436AF3B1034601220DF12A
:4038400007017E20FFF7C8FE0546636A0120984755B9A378012B07D1234601220DF107017F20FFF71BFD054645B92046FFF790FC04E04FF0FF3501E04FF0FF35284603B065
:4038800030BD00BF30B583B00446FFF76BFCA378012B03D1012284F82A2002E0002284F82A2040B9012B06D1234601220DF107017F20FFF7F3FCF8B900232370032206E04B
:4038C0002346012221460020FFF7E8FC2A46531EDDB212B12378D12BF2D140B92378D12B08D1FF23E3702046FFF79EFF04E06FF0020001E06FF0020003B030BD60B1426A93
:403900006AB110B50446FFF733FF034658B92046FFF75CFF034606E04FF0FF3301E04FF0FF3318467047184610BD00BFB0B1426ABAB110B50446FFF797FE0346A8B9204611
:40394000FFF7B8FE034680B92046FFF7D7FF034658B92046FFF71CFD034606E04FF0FF3301E04FF0FF3318467047184610BD00BF38B500F0030510F0040F01D1002000E05D
:403980000320B3B11446022D08D0032D0CD0012D12D1A1B11A46FFF721FD38BD92B11A462146FFF75BFD38BD7AB189B1FFF7B8FD38BD4FF0FF3038BD6FF0040038BD4FF0FB
:4039C000FF3038BD4FF0FF3038BD4FF0FF3038BD4FF0FF3038BD00BF30B583B005460C4600238DF807300846FFF7BCFB08BB234601220DF107017B20FFF750FC0346D0B928
:403A0000012D07D1ED00EDB29DF807301D438DF8075005E09DF8073023F008038DF80730234601220DF107017B20FFF7D5FD034601E04FF0FF33184603B030BD30B583B0BB
:403A400005460C4600238DF804308DF805300846FFF788FB78B92346022201A97820FFF71DFC024648B99DF804309DF8051043EA01232B8001E04FF0FF32104603B030BD3E
:403A8000F8B504460F4616461D46002100F07CFD10B9384600F00AFE0121204600F0B4FD074670B110E06B1E9C4204DA012000F029FE305503E0002000F024FE30550134DA
:403AC00000E00024AC42EEDB00F0D4FD78B2F8BDF8B50C4617461E46002100F055FD054678B9204600F0E2FD054638B109E0385D00F0DCFD054620B9013400E00024B442C9
:403B0000F5DB00F0B7FD68B2F8BD00BF08B500F0DBF908BDFEE700BFF0B40022174611E050F82760F3B226F0FF0608E001EB420511F812406D78A5550132013BDBB2002B7A
:403B4000F4D10137182FEBD9F0BC7047064B1B78DBB203F00701054A11701B09013213704422034B1A707047CF0100496E5800407658004008B50A46002102F0D8FE08BDE7
:403B800038B540F2DF12344B1A80182202331A70062203F27E231A7043F21332EE3B1A80023B05221A701B7843F2C82404E04FF4F07002F01DF8013C24B1284B1B7813F013
:403BC000800FF4D114B90120FFF7A4FF4FF4E262234B1A8001224FF040231A7041F2512203F508731A80002419250CE01D4B1B7803F0010343EA440404F003044FF4F07006
:403C000001F0F6FF013D0DB1032CEFD115B90320FFF780FF144B4FF480721A800321134A1170134A1278D2B212490A7007221A700022A1F29B610A704820023108701A7062
:403C400002230D4A1370083A137002F2A132137843F00103137038BD80400040104200402242004025420040044000400042004008010049A14600400940004008B502F0EB
:403C80004BFE08BD38B572B600240CE0314D630019194A0011462A44084691882858FFF769FF0134E4B2072CF0D92B4C04F164012046FFF731FF294A137843F0020313708D
:403CC0001032137843F002031370254D2B7843F040032B70A2F58632513A137843F010031370082204F59A711E48FFF7C7FF0A2204F59E711C48FFF7C1FF0A2204F5A47110
:403D00001A48FFF7BBFF082204F5AA711848FFF7B5FF0A2204F5AE711648FFF7AFFF082204F5B4711448FFF7A9FF144A137843F008031370124C61232370FFF721FFC12388
:403D40002370FFF703FF0E2229460E48FFF796FF38BD00BF108B0000C005004803500140A043004002510040C0510040F05100401251004020510040325100402243004004
:403D800000480040B043004008B502F099FD03680C2B00D1FEE7FEE708B5094B1A681044084BC31AB3F5007F02DC054B186005E002F086FD0C2303604FF0FF32104608BD6B
:403DC000CC80FF1F2884FF1F08B5104E104D16E029686B68AC68002204E051F8040B43F8040B0432A242F8D1E868002203E0002143F8041B04328242F9D11035013E002ED8
:403E0000E6D102F063FDFFF763F9FEE701000000388E000008B5104A104B1A60104A136843F40073136000230AE0032B03D80D4A52F8231000E00C490C4A42F82310013387
:403E40002F2BF2D90A4B1A780A4B1A70074A0A4B1A60FFF717FF08BD0004FA050CED00E014ED00E0002E0000893D00000080FF1FBC760040C080FF1F08ED00E0044A137899
:403E800003F0BF03800100F0400018431070704720510040044A137803F0DF03400100F0200018431070704720510040044A137803F0EF03000100F01000184310707047C6
:403EC0002051004001BE704710B5044605E0084B186801F08DFEA4F50044B4F5004FF6D8034B586800FB04F001F082FE10BD00BFD080FF1F08B5034B1B7A00FB03F001F0CE
:403F000077FE08BDD080FF1F70B504460E46074B1D680F2802D90020FFF7D4FF04F00F0455F8240045F8246070BD00BF08ED00E070B504460E46074B1D681F2802D900206E
:403F4000FFF7C0FF04F01F04103455F8240045F8246070BD08ED00E038B504460D46072902D90020FFF7AEFF1F2C02D90020FFF7A9FF04F01F0000F1604000F564406D0116
:403F8000EDB2057038BD00BF024A136843F002031360704710E000E008B5FFF7F5FF034A136843F00103136008BD00BF10E000E020F07F40014B1860704700BF14E000E0F6
:403FC000024B186820F07F40704700BF18E000E0012805D1054A136843F0040313607047024A136823F004031360704710E000E0024B1868C0F30040704700BF10E000E0C9
:4040000010B5FFF7F5FF01280BD107E0054B03EB84035B6803B19847013400E00024042CF4D910BDC081FF1F0022014B1A60704718E000E008B5002305E00F4A02EB830261
:40404000002151600133042BF7D90C490F20FFF75BFF0120FFF7BCFF094BDB680948A0FB03308009FFF7A4FFFFF7DEFF4FF40042054B1A6008BD00BFC081FF1F0140000077
:40408000D080FF1FD34D621000E100E008B5054B9B6923B9FFF7CEFF0122024B9A61FFF77BFF08BDC081FF1F024B03EB8003586859607047C081FF1F134B1B78DBB2036062
:4040C000124A127843EA02230360114A127843EA024303600F4A127843EA026303600E4B1B78DBB243600D4A127843EA022343600B4A127843EA024343600A4A127843EAA2
:4041000002634360704700BF0301004904010049EC4600400201004901010049000100490501004906010049084A137843F0010313701032137843F00103137002F64D32DF
:40414000137843F001031370704700BFA3430040014B1880704700BF044F0040014B1880704700BF064F0040014B1870704700BF034F004008B5194A137843F00203137040
:404180000232137803F08F0343F010031370144B1A7802F0CF021A701A7842F030021A701A7802F0F0021A701A7842F00F021A706420FFF7CDFF0320FFF7D0FF0020FFF791
:4041C000D3FF084A137843F00103137002F65E32137843F00103137008BD00BF004F00400B4F0040A343004008B5054B1B7823B9FFF7C0FF0122024B1A70FFF795FF08BD3C
:40420000DC81FF1F10B50222114B1A7081220E3B1A70082202331A701E2211331A70002401331C704FF400420A4B1A6007210F20FFF792FE08490F20FFF77AFE1022074B40
:404240001A70074B1C70074B1C70074B1C7010BDD649004080E100E0B94200003483FF1F3A83FF1F3C83FF1F3883FF1F08B501F0C7FC064A137843F0040313701032137876
:4042800043F00403137001F0BFFC08BDA543004008B5074B1B7823B9FFF7B4FF0122044B1A70FFF7E3FF4FF40042024B1A6008BDDD81FF1F00E100E038B5A54B1C78A54BFE
:4042C0001B7813F0400F00F03A81E4B214F0010F00F01D819F4B1B78453B052B00F21481DFE813F006008200120112010600DF0004F0DF0504F00A04082C42D1954B1B7851
:40430000DBB2452B35D1944B1B7813F0FF0F10D0924B1B681B78DBB2914A137004228C4B1A7001228F4B1A7046228A4B1A702C46EDE08D4B1B7813F0020F0DD08B4A137869
:4043400043F00A0313706022824B1A704FF40042874B1A602C46DAE0864A137843F0100313701022844B1A700422023B1A702C46CDE00022764B1A704A22764B1A702C4653
:40438000C5E00A2C2BD1794A137843F0A0031370754B1B7813F0020F14D06E4B1B7813F0080F01D0092300E00A23704A11780B4313706022674B1A704FF400426C4B1A603C
:4043C0002C46A4E06B4A137843F0100313701022694B1A700422023B1A702C4697E00020FFF770FD2C4692E014F0020F36D15D4B1A78D2B2584B1B78DBB29A4210D2594A13
:404400001378DBB255490968CB5CDBB254490B7004214F4B197013780133DBB2137076E0514B1B7813F0020F0CD0504A137843F00A0313706022474B1A704FF400424C4B5B
:404440001A6064E04B4A137843F0100313701022494B1A700422023B1A7058E0424B1B7813F0020F0CD0414A137843F09A0313706022384B1A704FF400423D4B1A6046E06B
:404480003C4A137843F01003137010223A4B1A700422023B1A70354A137843F09003137035E0364A1378DBB2354908682C490978C9B2C15413780133DBB213701278D2B2A3
:4044C000304B1B78DBB29A4203D21022204B1A701DE0254B1B7813F0020F0CD0234A137843F00903137060221A4B1A704FF400421F4B1A600BE01F4A137843F0100313701D
:404500000022134B1A7002E00020FFF7DBFC14F0200F1CD00F4B1B7813F0080F01D0012300E00223114A11780B431370114A137803F0EF0313701022064B1A7038BD054B2D
:404540001B7813F0100F02D11022024B1A7038BDD74900403483FF1F3B83FF1F4083FF1FD84900403883FF1F3983FF1F3A83FF1F80E100E0D6490040D94900403C83FF1FF5
:404580004483FF1F4883FF1F1A4B1B78DBB2102B29D1194B1B7813F0080F26D14FF40042164B1A604000C0B229B140F001004922104B1A7002E045220E4B1A70104B1870EF
:4045C000012201331A700F4B1B7813F0010FFAD00C4B1B7803F00A030A2B08D11022054B1A700320704702207047012070470020704700BF3483FF1FD949004080E100E073
:40460000D8490040D7490040164B1B7813F0040F23D04000C0B229B140F001004922124B1A7002E04522104B1A70104B1870122201331A700422023B1A700D4B1B7813F0CF
:40464000010FFAD00A4B1B7803F00A030A2B06D11022054B1A7003207047022070470020704700BFD94900403483FF1FD8490040D74900400A4B1B7813F0040F0ED0102310
:40468000074A13700421023A1170064A1370064B1B7813F0210FFAD00020704702207047D94900403483FF1FD7490040114B1B7813F0040F1BD0104B18700422013B1A708A
:4046C00046220E4B1A700E4B1B7813F0010FFAD00B4B1B7813F0020F04D16022074B1A70002070476022054B1A70032070470220704700BFD9490040D84900403483FF1F39
:40470000D7490040114B1B7813F0040F1BD0104B1B78DBB2492B05D100220E4B1A704A220B4B1A700B4B1B7813F0010FFAD00A4B1B78DBB218B11021064A117004E06021A8
:40474000034A117000E0002318467047D94900403483FF1FD7490040D8490040044A137803F07F03C001C0B218431070704700BF20510040014B1878C009704721510040CA
:40478000F8B501F03DFA0746404A137843F0010313701032137843F00103137001263C4B1E700225943B1D7002F5E2521B32137803F07F0313700020FFF79CFB354C2378FE
:4047C00003F0F9032370344A137803F0DF0313702378334323703046FFF78CFB2820FFF789FB2E4B1A7802F07F021A701A7802F0BF021A7023782B4323702846FFF77AFB31
:40480000237843F0040323700024254B1C7001331C70384601F0F8F907211720FFF79CFB20491720FFF784FB07211820FFF794FB1D491820FFF77CFB07211520FFF78CFB05
:404840001A491520FFF774FB07212046FFF784FB17492046FFF76CFB07213046FFF77CFB14493046FFF764FB07212846FFF774FB11492846FFF75CFB07210C20FFF76CFB21
:404880000E490C20FFF754FBF8BD00BFA54300409D6000409443004012600040F851004084600040855200006D50000081520000E151000011520000455200008D5200006F
:4048C00008B5214B18700023204A1370204A1370204A1370204A1370204A1370204A1370204A1370204B4FF400021A604FF080721A604FF400121A6001221A6002221A608A
:4049000004221A6011B1012906D00BE0174A137803F0FE0313700AE0144A137843F00103137004E0114A137803F0FE03137003220F4B1A708022203B1A70012001F058F906
:4049400004220C4B1A7008BD6583FF1F6883FF1F8483FF1F8783FF1F7C83FF1F8683FF1F8983FF1F6483FF1F00E100E009600040286000401260004038B504460D46064BDD
:404980001B7823B9FFF7FCFE0122034B1A7029462046FFF795FF38BDDE81FF1F00230A4A13700A4A13700A4A13700A4A13700A4A13700A4A13700A4A13700322094B1A70C5
:4049C0008022203B1A7070476883FF1F8483FF1F8783FF1F7C83FF1F8683FF1F8983FF1F6483FF1F28600040014B1878704700BF8783FF1F064B1B7813F0FF0F05D0044B55
:404A00001878C0B200221A7070470020704700BF8483FF1F00EB40008300024A13445878704700BF8C83FF1F431EDBB2072B3CD8F0B4074600EB4004A3001C4C2344DB8869
:404A40009BB2C3F500739A4208D900EB400293002344DA8892B2C2F5007292B200EB4004A300124C2344DB7843EA1223104D04012E192B55D3B2737039B909E0CE5C3D01A7
:404A80000C4C665501339BB200E000239A42F5D8420002449300054A134400225A705A79D2B20001044B1A54F0BC70478C83FF1FFC5F004078600040FE5F0040431EDBB226
:404AC000072B0BD8420002449300054A134400225A705A79D2B20001024B1A54704700BF8C83FF1FFE5F00400246002001E0013080B2135C002BFAD1704700BF10B4FF2433
:404B000000230EE0094AD25C02EB42029100084A11448A7AD2B2824201D11C4602230133DBB2012BEED9204610BC70475483FF1F8C83FF1F10B5204C2079FFF7DFFF2378DD
:404B400013F0800F0ED06378DBB2212B2FD11B4B07221A80C0EBC000194A1044586000F0F3FA10BD144B5B78DBB2202B02D0222B10D01EE0114A07231380C0EBC00310497E
:404B80000B4453600F4A135C43F00103135400F003FB10BD084B9B780B4A22F81030094A135C43F00203135400F08CF910BD002010BD002010BD00BF006000407083FF1FD0
:404BC000E080FF1F4C83FF1F6083FF1F10B500241F4B1C701F4B1C705C700AE01E4B185DC0B2431EDBB2072B01D8FFF767FF0134E4B2012CF2D9194B1B7813F0FF0F1AD064
:404C0000154B1B7813F0FF0F17D0154B1B7813F0FF0F14D0114B1B78DBB2082B11D80E4B1B78DBB2082B0ED80D4B1B78DBB2082B0BD8002010BD012010BD012010BD0120FF
:404C400010BD012010BD012010BD012010BD00BFDF81FF1F4C83FF1F5883FF1F5083FF1F5483FF1F2DE9F8438046234B1B78234AD65CF6B2FFF738FF05460027344606EB2B
:404C8000460293001E4A13441B899BB29D4209D906EB460293001A4A1344B3F808901FFA89F900E0A9464A4608EB07013046FFF7BBFEC9EB0505ADB245B906EB46029300DD
:404CC0000F4A13441B899BB2994510D14F44BFB204EB440293000A4A13445B7813F0FF0FF6D025B9002211463046FFF79DFE002DC4D1BDE8F88300BFDF81FF1F5083FF1FC5
:404D00008C83FF1F08B5034B1B78034AD05CFFF781FE08BDDF81FF1F5083FF1FC37803F0030390F9020000280FDA032B06D002F001030B48C15442F001020EE0C2F38003F9
:404D40000848C15442F0040207E0032B05D0C2F340030548C15442F002021046704700BF5083FF1F5483FF1F5883FF1F1D4B19781D4A13889BB20B449BB2138000220FE0E9
:404D80001A494B681B78DBB2194883544B6801334B600132D2B20B889BB2013B9BB20B80124B1B889BB20BB1072AE9D90D4B1B78DBB2082B00D05AB10E490B7883F08003F6
:404DC0000B700F210C4B197002210C4B197004E0022309490B7009490B70094B1A70014B1A7070476483FF1F6683FF1F7083FF1F00600040FA83FF1F8583FF1F6883FF1F90
:404E00008883FF1F0222074B1A708022064B1A700F22064B1A700023054A1370054A1370012070476883FF1FFA83FF1F8583FF1F6483FF1F8883FF1F08B5FFF797FF08BD1B
:404E400010B4194B197801F00F010239C9B2174A13889BB20B449BB21380002011E0144A5468144B1B5CDBB223705368013353600130C0B20139C9B213889BB2013B9BB2BE
:404E800013800B4B1B889BB20BB10029E7D10A4B19700A4A137883F0800313700B22084B1A7010BC704700BF296000406683FF1F7083FF1F006000408883FF1FFA83FF1FB5
:404EC0008583FF1F0623064A1370064A13708022054B1A700022054B1A700120704700BF6883FF1F8583FF1FFA83FF1F8883FF1F064B9B6843B1054B9A6810709A68044952
:404F00000988518000229A60704700BF7083FF1F6683FF1F08B5134B1A78D2B21A701B78DBB213F0800F02D00F4A137008BD0220FFF7DEFF0D4B1B7803F06003202B05D02F
:404F4000402B06D043B900F093FC06E000F060FE03E000F037FE00E0002010B90322024B1A7008BD286000408583FF1F0060004008B5094B1978094A13889BB20B449BB2A8
:404F800013800022064B1A700120FFF7B1FF0322044B1A7008BD00BF6483FF1F6683FF1F6883FF1F8583FF1F08B50B4B1B78DBB2042B06D0062B07D0022B0BD1FFF7D8FFC7
:404FC00008BDFFF73DFF08BD0320FFF791FF0322024B1A7008BD00BF6883FF1F8583FF1F08B50022044B1A700120FFF781FF0322024B1A7008BD00BF6883FF1F8583FF1F9F
:4050000008B50B4B1B7813F0FF0F07D0084A137843F0800307490B70002313700022064B1A700120FFF764FF0322044B1A7008BD8683FF1F086000406883FF1F8583FF1FA6
:4050400008B5094B1B78DBB2042B06D0062B07D0022B07D1FFF7F0FE08BDFFF7C1FF08BDFFF7CEFF08BD00BF6883FF1F08B5284B1B78DBB213F0100F48D013F0800F0CD081
:4050800003F00F03012B16D1FFF744FF214B1B7813F0800F11D1012312E013F0400F03D0FFF7CEFF01230BE013F0200F07D0FFF77BFF012304E0002302E0002300E0002373
:4050C00023B3134B1B7813F0800F1FD1124B1B78124A12781343124A13701278D2B2934214D10C4B1B78DBB2094A127812F0800F07D1084B1B78DBB2054A1370137803F014
:405100000F03044A1278D2B29342EAD108BD00BF286000408583FF1FFA83FF1F8883FF1F296000400022064B1A80064B9B682BB1044A916800230B7092685380704700BF0D
:405140006683FF1F7083FF1F08B50F4B1B889BB213B9FFF757FE15E002220C4B1A7000220B4B1A70FFF7DEFF0A4AD179937943EA0123054A128892B2934201D2024A13807B
:40518000FFF7F4FD012008BD7083FF1F6883FF1FFA83FF1F0060004008B504220B4B1A7080220B4B1A70FFF7BDFF0A4AD179937943EA0123084A128892B2934201D2064AB3
:4051C00013800B22054B1A70012008BD6883FF1FFA83FF1F006000407083FF1F8583FF1F0122094B1A700F3B9B7C084B1B7B03F00303934204D0054AD37B83F08003D373EE
:405200000122024B5A7370470B6000408C83FF1F02220A4B1A700F3B93F82230084B1B7E03F00303012B04D0054AD37E83F08003D3760122024B5A76704700BF0B60004053
:405240008C83FF1F04220C4B1A700F3B93F832300A4B93F8243003F00303012B06D0074A92F8273083F0800382F827300122034B83F82520704700BF0B6000408C83FF1F1C
:40528000704700BF08B5FFF789FB08BD08B500F0A5FC08BD70B588B0054603AC174E0FCE0FC43368237035B322232B7003236B7001A8FEF701FF002402231AE008AA22440D
:4052C00012F81C2C08A901EB121111F8141CE954581C00212954981C02F00F0208AE324412F8142C2A54DA1CA9540134E4B20433DBB2212BE2D908B070BD00BF408B000071
:4053000010B401233EE019461A010C242148845403EB4300820020480244527912F0FF0F13D003EB430082001B480244127912F0800F04D01801194A024494700AE0180148
:40534000164A02440820907004E01801134A0244802090704800084482000F480244D488E4B208010B4901448C71D088C0F30720C871D088C0B20871D288C2F307224A713A
:405380000133DBB2082BBED9FF22054B1A7010BC704700BF706000408C83FF1FFC5F00400A600040074B1A78074B03EBC2035B681A7C824204D9C000103018444068704705
:4053C000002070476583FF1F548B0000F8B5404B1B7813F0FF0F79D03D4B18780138C0B2FFF7E0FF047AC2683A4B1878C0B200236AE01178884264D13749095CC9B25578E3
:40540000A9425ED1917801F07F01D67806F00306DFF8C8E04D000D44AF000EEB07054FF0000C85F803C092F802C085F804C092F803C00EF807C097882F8192F90250002DAF
:405440000DDA012E01D1072700E00D274E000E44B500224E35446F7101266E700CE0012E01D1052700E009274E000E44B5001B4E35446F7100266E70DFF868E00F010EEB73
:4054800007060125B57001FA05F529448D00134929440D89C5F307250EF807500D89EDB27570CE88F6B20E4D3D44AE71CE88C6F30726EE71CE88F6B22E71C988C1F307218D
:4054C000697108320133DBB2A34292D3F8BD00BF8783FF1F7C83FF1FF883FF1F8C83FF1F70600040FC5F0040034B1A78034B03EBC2035868704700BF6583FF1F548B000067
:4055000008B5084B18780138C0B2FFF74BFF30B142681279023200EBC203586808BD002008BD00BF8783FF1F2DE9F047002310E0724D5900CA189600AC190022AA55A270AD
:40554000E2702281A272627034462C4462710133DBB2082BECD940B90AE000226849CA546849CA540133DBB200E00023012BF4D9654B1B7813F0FF0F00F0BD80624B1878BC
:405580000138C0B2FFF70EFF80464368DB7913F0400F05D05D4A137843F00103137004E05A4A137803F0FE03137098F808704FF0000A01266FE0D8F80C50002467E0AB785A
:4055C00003F07F039E425FD1314606EB460083004A4803441B899BB2A888834206D206EB460E4FEA8E03454A134418812B784448C35CDBB26878834246D195F802C0DFF813
:40560000FCE04B000B4498000EEB000383F804C0EB780EF80030EB7803F0030395F90200002813DA012B02D14FF0070901E04FF00D09DFF8C8E04B0003EB010C4FEA8C0079
:40564000704480F805900121417012E0012B02D14FF0050901E04FF00909DFF8A0E04B0003EB010C4FEA8C00704480F8059000214170AB790A2B01D0022B05D152463146F5
:405680002846FFF74BFB824608350134E4B2BC4295D30136F6B2082E8DD9D8F80C0000220CE0837803F07F0310F8084B03EB43039900124B19448C720132D2B2BA42F0D3DF
:4056C000FFF71EFF124B1860002301210FE00B4D4A00501884002C44E380228992B213449BB203F0010213449BB20131C9B20829EDD9FFF705FEBDE8F08700BF8C83FF1F5B
:40570000F883FF1F6C83FF1F8783FF1F8983FF1F8083FF1F08B5154B1B7903F07F035A1ED2B2072A20D8590019448A0010490A44917841F0010191700021D170517841F085
:4057400002015170127912F0800F05D01B01094A1A448D23937004E01B01064A1A4489239370FFF7AFFB08BD002008BD006000408C83FF1FFC5F0040274B1B7903F07F036A
:405780005A1ED2B2072A44D810B5590019448A0022490A44917801F0FE0191700021D1701F4C1801215C01F07F012154517801F0FD015170127912F0800F13D003EB4301F5
:4057C0008A0016490A445278D2B2012A04D1224602440C23937019E01B01114A1A440D23937013E003EB43018A000C490A445278D2B2012A05D11B01094A1A4408239370A7
:4058000004E01B01064A1A4409239370FFF75AFB10BD0020704700BF006000408C83FF1FFC5F004010B50E4B1C79E4B20D4B18780138C0B2FFF7B6FD43681B799C4201D9F9
:40584000022C0AD8084A135DDBB208490B55044B9B78DBB21355012010BD002010BD00BF006000408783FF1FF883FF1F6C83FF1F10B59C4B1B78DBB200219B4A118013F053
:40588000800F00F0AD80974A5278D2B20A2A00F27481DFE812F06900720172017201720172010B007201920072019A008D4BDB78DBB2012B09D1FFF717FE42688A4B5A6062
:4058C00012221A80FFF740FC10BD864BDB78DBB2022B13D1834B9878FFF764FD002800F04E814268804B5A605A68D1785A68927842EA01221A80FFF727FC10BD794BDB7811
:40590000DBB2032B05D02CE00A7811440133DBB201E000237549734A9278D2B2934203D20A7812F0FF0FEFD16E4B9B7813F0FF0F0BD06C4B9B78DBB26D4A127C934204D12C
:405940006C4C2046FFF7A6FC21460B7813F0FF0F00F017810B78644A13805160FFF7F4FB10BD00F055F910BD13F0030317D0022B40F009815C490B805A4B1B7903F07F0307
:4059800003EB43039A005C4B1A449278D2B25B4B1A7000225A704B60FFF7D6FB10BD524902230B80564B1A78D2B2544B1A7000225A704B60FFF7C8FB10BD4B4B01221A8090
:4059C000504A5A60FFF7C0FB10BD474A01231380444B1B794C490B445360FFF7B5FB10BD404A5278013A0A2A00F2CF80DFE812F04C00CD009800CD000B00CD00CD00CD00A3
:405A00001300CD003000374B9B78DBB23F4A1370FFF758FA10BD334B9B7803F0FF041BB1601EC0B2FFF7BEFC04B110B9002C40F0AE80344B1B78DBB29C4206D0314B1C70BD
:405A40000120334B1870FFF76FFDFFF73BFA10BDFFF7E8FE002800F09C80224A1379DBB21279D2B22B490A702B4AD25CD2B22649CB5CDBB29A4204D00122254B1A70FFF706
:405A8000A5FCFFF71FFA10BD03F00303012B17D04BB1022B7FD1134B9B7813F0FF0F7CD1FFF76AFE10BD0F4B9B78DBB2012B76D1134A137803F0FD031370FFF703FA10BD5F
:405AC000084B1B79DBB2012B6BD8064B98781B79DBB21249CA5C22EA0002CA54FFF7F2F910BD00BF006000407083FF1FBC8B0000A08C00000084FF1F8C83FF1FE081FF1FB5
:405B00008983FF1F8783FF1FF883FF1F8683FF1F8483FF1F7C83FF1F6C83FF1FFC83FF1F03F00303012B17D04BB1022B3BD1224B9B7813F0FF0F38D1FFF7ECFD10BD1E4B77
:405B40009B78DBB2012B32D11C4A137843F002031370FFF7B7F910BD174B1B79DBB2012B27D8154B98781B79DBB21549CA5C22EA0002CA54FFF7A6F910BD002010BD0020D9
:405B800010BD002010BD002010BD002010BD002010BD002010BD002010BD002010BD002010BD002010BD002010BD002010BD002010BD002010BD00BF006000408983FF1F86
:405BC000FC83FF1F044B1B7813F0800F01D0024B5B780020704700BF00600040024B1878C0F38010704700BF8F450040000000000230800803D000BF01380046FCD1704774
:405C0000EFF3108072B6704780F31088704700BF08B5144B1B7803F00303012B02D0022B04D00FE00F4B1B79DBB20CE00D4B1B7903F07F0303EB43039A000B4B1A44937AA5
:405C4000DBB200E00023022B07D8084A1268D35C022B04D1FEF76EFF08BD002008BD002008BD00BF006000408C83FF1F8083FF1F81F0004102E000BF83F0004330B54FEAC6
:405C800041044FEA430594EA050F08BF90EA020F1FBF54EA000C55EA020C7FEA645C7FEA655C00F0E2804FEA5454D4EB5555B8BF6D420CDD2C4480EA020281EA030382EA0C
:405CC000000083EA010180EA020281EA0303362D88BF30BD11F0004F4FEA01314FF4801C4CEA113102D0404261EB410113F0004F4FEA03334CEA133302D0524263EB430394
:405D000094EA050F00F0A780A4F10104D5F1200E0DDB02FA0EFC22FA05F2801841F1000103FA0EF2801843FA05F359410EE0A5F120050EF1200E012A03FA0EFC28BF4CF0D1
:405D4000020C43FA05F3C01851EBE37101F0004507D54FF0000EDCF1000C7EEB00006EEB0101B1F5801F1BD3B1F5001F0CD349085FEA30004FEA3C0C04F101044FEA445291
:405D800012F5800F80F09A80BCF1004F08BF5FEA500C50F1000041EB045141EA050130BD5FEA4C0C404141EB010111F4801FA4F10104E9D191F0000F04BF01460020B1FACE
:405DC00081F308BF2033A3F10B03B3F120020CDA0C3208DD02F1140CC2F10C0201FA0CF021FA02F10CE002F11402D8BFC2F1200C01FA02F120FA0CFCDCBF41EA0C019040AD
:405E0000E41AA2BF01EB0451294330BD6FEA04041F3C1CDA0C340EDC04F11404C4F1200220FA04F001FA02F340EA030021FA04F345EA030130BDC4F10C04C4F1200220FA96
:405E400002F001FA04F340EA0300294630BD21FA04F0294630BD94F0000F83F4801306BF81F480110134013D4EE77FEA645C18BF7FEA655C29D094EA050F08BF90EA020F33
:405E800005D054EA000C04BF1946104630BD91EA030F1EBF0021002030BD5FEA545C05D14000494128BF41F0004130BD14F580043CBF01F5801130BD01F0004545F0FE4141
:405EC00041F470014FF0000030BD7FEA645C1ABF194610467FEA655C1CBF0B46024650EA013406BF52EA033591EA030F41F4002130BD00BF90F0000F04BF0021704730B535
:405F00004FF4806404F132044FF000054FF0000150E700BF90F0000F04BF0021704730B54FF4806404F1320410F0004548BF40424FF000013EE700BF42004FEAE2014FEAAB
:405F400031014FEA02701FBF12F07F4393F07F4F81F06051704792F0000F14BF93F07F4F704730B54FF4607401F0004521F0004120E700BF50EA010208BF704730B54FF0E3
:405F800000050AE050EA010208BF704730B511F0004502D5404261EB41014FF4806404F132045FEA915C3FF4DCAE4FF003025FEADC0C18BF03325FEADC0C18BF033202EB35
:405FC000DC02C2F1200300FA03FC20FA02F001FA03FE40EA0E0021FA02F11444C1E600BF70B54FF0FF0C4CF4E06C1CEA11541DBF1CEA135594EA0C0F95EA0C0F00F0DEF83F
:406000002C4481EA030621EA4C5123EA4C5350EA013518BF52EA033541F4801143F4801338D0A0FB02CE4FF00005E1FB02E506F00042E0FB03E54FF00006E1FB03569CF062
:40604000000F18BF4EF0010EA4F1FF04B6F5007F64F5407404D25FEA4E0E6D4146EB060642EAC62141EA55514FEAC52040EA5E504FEACE2EB4F1FD0C88BFBCF5E06F1ED8BE
:40608000BEF1004F08BF5FEA500E50F1000041EB045170BD06F0004646EA010140EA020081EA0301B4EB5C04C2BFD4EB0C0541EA045170BD41F480114FF0000E013C00F33C
:4060C000AB8014F1360FDEBF002001F0004170BDC4F10004203C35DA0C341BDC04F11404C4F1200500FA05F320FA04F001FA05F240EA020001F0004221F0004110EBD370EC
:4061000021FA04F642EB06015EEA430E08BF20EAD37070BDC4F10C04C4F1200500FA04F320FA05F001FA04F240EA020001F0004110EBD37041F100015EEA430E08BF20EA73
:40614000D37070BDC4F1200500FA05F24EEA020E20FA04F301FA05F243EA020321FA04F001F0004121FA04F220EA020000EBD3705EEA430E08BF20EAD37070BD94F0000F6E
:406180000FD101F00046400041EB010111F4801F08BF013CF7D041EA060195F0000F18BF704703F00046520043EB030313F4801F08BF013DF7D043EA0603704794EA0C0FE0
:4061C0000CEA135518BF95EA0C0F0CD050EA410618BF52EA4306D1D181EA030101F000414FF0000070BD50EA410606BF1046194652EA430619D094EA0C0F02D150EA013622
:4062000013D195EA0C0F05D152EA03361CBF104619460AD181EA030101F0004141F0FE4141F470014FF0000070BD41F0FE4141F4780170BD70B54FF0FF0C4CF4E06C1CEABB
:4062400011541DBF1CEA135594EA0C0F95EA0C0F00F0A7F8A4EB050481EA030E52EA03354FEA013100F088804FEA03334FF0805545EA131343EA12634FEA022245EA111596
:4062800045EA10654FEA00260EF000419D4208BF964244F1FD0404F5407402D25B084FEA3202B61A65EB03055B084FEA32024FF480104FF4002CB6EB020E75EB030E22BF5A
:4062C000B61A754640EA0C005B084FEA3202B6EB020E75EB030E22BFB61A754640EA5C005B084FEA3202B6EB020E75EB030E22BFB61A754640EA9C005B084FEA3202B6EB64
:40630000020E75EB030E22BFB61A754640EADC0055EA060E18D04FEA051545EA16754FEA06164FEAC30343EA52734FEAC2025FEA1C1CC0D111F4801F0BD141EA00014FF0E2
:4063400000004FF0004CB6E711F4801F04BF01430020B4F1FD0C88BFBCF5E06F3FF6AFAEB5EB030C04BFB6EB020C5FEA500C50F1000041EB045170BD0EF0004E4EEA113128
:4063800014EB5C04C2BFD4EB0C0541EA045170BD41F480114FF0000E013C90E645EA060E8DE60CEA135594EA0C0F08BF95EA0C0F3FF43BAF94EA0C0F0AD150EA01347FF439
:4063C00034AF95EA0C0F7FF425AF104619462CE795EA0C0F06D152EA03353FF4FDAE1046194622E750EA410618BF52EA43067FF4C5AE50EA41047FF40DAF52EA43057FF428
:40640000EBAE12E780F0004002E000BF81F0004142001FBF5FEA410392EA030F7FEA226C7FEA236C6AD04FEA1262D2EB1363C1BFD218414048404140B8BF5B42192B88BFF0
:40644000704710F0004F40F4000020F07F4018BF404211F0004F41F4000121F07F4118BF494292EA030F3FD0A2F1010241FA03FC10EB0C00C3F1200301FA03F100F0004394
:4064800002D5494260EB4000B0F5000F13D3B0F1807F06D340084FEA310102F10102FE2A51D2B1F1004F40EBC25008BF20F0010040EA03007047490040EB000010F4000F77
:4064C000A2F10102EDD1B0FA80FCACF1080CB2EB0C0200FA0CF0AABF00EBC25052421843BCBFD0401843704792F0000F81F4000106BF80F400000132013BB5E74FEA410316
:406500007FEA226C18BF7FEA236C21D092EA030F04D092F0000F08BF0846704790EA010F1CBF0020704712F07F4F04D1400028BF40F00040704712F100723CBF00F5000051
:40654000704700F0004343F0FE4040F4000070477FEA226216BF08467FEA23630146420206BF5FEA412390EA010F40F4800070474FF0000304E000BF10F0004348BF404233
:406580005FEA000C08BF704743F0964301464FF000001CE050EA010208BF70474FF000030AE000BF50EA010208BF704711F0004302D5404261EB41015FEA010C02BF84460D
:4065C0000146002043F0B64308BFA3F18053A3F50003BCFA8CF2083AA3EBC25310DB01FA02FC634400FA02FCC2F12002BCF1004F20FA02F243EB020008BF20F00100704705
:4066000002F1200201FA02FCC2F1200250EA4C0021FA02F243EB020008BF20EADC7070474FF0FF0C1CEAD0521EBF1CEAD15392EA0C0F93EA0C0F6FD01A4480EA010C4002E0
:4066400018BF5FEA41211ED04FF0006343EA501043EA5111A0FB01310CF00040B1F5000F3EBF490041EAD3715B0040EA010062F17F02FD2A1DD8B3F1004F40EBC25008BF0C
:4066800020F00100704790F0000F0CF0004C08BF49024CEA502040EA51207F3AC2BFD2F1FF0340EAC250704740F400004FF00003013A5DDC12F1190FDCBF00F0004070475F
:4066C000C2F10002410021FA02F1C2F1200200FA02FC5FEA310040F1000053EA4C0308BF20EADC70704792F0000F00F0004C02BF400010F4000F013AF9D040EA0C0093F020
:40670000000F01F0004C02BF490011F4000F013BF9D041EA0C018FE70CEAD15392EA0C0F18BF93EA0C0F0AD030F0004C18BF31F0004CD8D180EA010000F00040704790F017
:40674000000F17BF90F0004F084691F0000F91F0004F14D092EA0C0F01D142020FD193EA0C0F03D14B0218BF084608D180EA010000F0004040F0FE4040F40000704740F06B
:40678000FE4040F4400070474FF0FF0C1CEAD0521EBF1CEAD15392EA0C0F93EA0C0F69D0A2EB030280EA010C49024FEA402037D04FF0805343EA111143EA10130CF00040AE
:4067C0008B4238BF5B0042F17D024FF4000C8B4224BF5B1A40EA0C00B3EB510F24BFA3EB510340EA5C00B3EB910F24BFA3EB910340EA9C00B3EBD10F24BFA3EBD10340EADF
:40680000DC001B0118BF5FEA1C1CE0D1FD2A3FF650AF8B4240EBC25008BF20F0010070470CF0004C4CEA50207F32C2BFD2F1FF0340EAC250704740F400004FF00003013ADA
:4068400037E792F0000F00F0004C02BF400010F4000F013AF9D040EA0C0093F0000F01F0004C02BF490011F4000F013BF9D041EA0C0195E70CEAD15392EA0C0F08D142026B
:406880007FF47DAF93EA0C0F7FF470AF084676E793EA0C0F04D14B023FF44CAF08466EE730F0004C18BF31F0004CCAD130F000427FF45CAF31F000437FF43CAF5FE700BFE7
:4068C000014B1868704700BF5C81FF1F0E4B70B51E460E4C0025E41AA410A54204D056F8253098470135F8E702F094FA084B094C1E46E41AA4100025A54204D056F8253035
:4069000098470135F8E770BD208E0000208E0000208E0000288E000010B5431E0A44914204D011F8014B03F8014FF8E710BD03460244934202D003F8011BFAE770472DE914
:40694000F04788B0149F002B1E461299B8BF03F1004327F02007B6BF1E4600232D23462F1446109DDDF84CA00B7003D0452F03D1013501E0032300E0022307AA049206AA77
:4069800003928DE828042246334600F001FD472F804602D1119BDB0728D5462F08EB050911D198F80030302B0AD1002200232046314602F02FF818B9C5F10105CAF8005010
:4069C000DAF800309944002200232046314602F021F808B9302202E0CDF81C9006E0079B994503D9591C07911A70F8E74046079B159AC8EB0303136008B0BDE8F08703464D
:406A000073B50029B8BF494203F8022BB4BF2D222B22092942701ADD0DF1070216460A2591FBF5F405FB1411092C01F1300102F8011D2146F4DC3031541E02F8011CB4423E
:406A40001A460AD214F8012B03F8012BF7E71A463024214402F8024B5970101A02B070BD2DE9F04F91B00C46DDF8688016461F46054601F025FA03681846099300F0F4FB66
:406A800000230E93D8F800300A90073323F0070303F1080294F81890D4F800B0C8F80020D3E90023C4E91223D4F84CA0D4F848802AF000430B934FF0FF32A74B40460B99FF
:406AC00001F0DAFFA0B94FF0FF32A34B40460B9901F0B4FF60B9002200234046514601F0A3FF10B12D2384F843309C4B9C4A0AE0424653464046514601F0BEFF002800F07E
:406B00009281984B984AB9F1470F8CBF90469846032323612BF0040323604FF0000A3DE0B9F1670F00F08A81B9F1470F00F0868123600193636800210DF133020590029258
:406B40000093424653460691CDF81090CDF80CE02846FFF7F4FE09F0DF03472B804600F08481B9F1650F0D9900F28D8101394A4604F150000D91FFF742FF0E9A82468318A3
:406B8000012A236100F37C812268D10700F178819DF8333013B12D2384F84330009733460FAA2146284600F09FF9013002D14FF0FF3096E123685A0501D4236965E0B9F1A6
:406BC000650F40F2D580D4E912010022002301F021FF78B30123654A31462846B8470130E5D00E9B0D9A9A420BDB2368D80708D423689B0740F111814FF0000804F1190906
:406C000006E10A9B099A31462846B8470130CED04FF0000804F11A090E9B013B9845E7DA01234A4631462846B8470130BFD008F10108F1E70D9B002B29DC01234B4A314656
:406C40002846B8470130B2D00D9B23B90E9B13B92368D907CCD50A9B099A31462846B8470130A4D04FF0000904F11A0A0D9B5B42994509DA0123524631462846B8470130E6
:406C800095D009F10109F1E70E9B4246A7E00E9AA36D9A42A8BF1A46002A914606DC4FF0000A29EAE97904F11A0B11E01346314642462846B8470130F1D178E701235A46F9
:406CC00031462846B84701303FF471AF0AF1010AA36DC9EB03029245F0DB08EB03090D9A0E9B9A420FDB2368DA070CD40E9B0D9A9844C9EB08089B1A9845A8BF9846B8F1EA
:406D0000000F08DC0FE00A9B099A31462846B8470130EBD14BE743464A4631462846B84701303FF444AF4FF0000928EAE87804F11A0A09E00123524631462846B847013045
:406D40003FF435AF09F101090D9A0E9B9B1AC8EB03039945EEDB4BE7FFFFEF7FB48C0000B88C0000BC8C0000C08C0000C48C00000E9A012A01DCDB0738D5012342463146CB
:406D80002846B84701303FF412AF0A9B099A31462846B84701303FF40AAFD4E912010022002301F037FE20B14FF0000804F11A090EE00E9B08F10102013B19E001234A4611
:406DC00031462846B84701303FF4F1AE08F101080E9B013B9845F1DB534604F1500231462846B84701307FF403AFE0E64246012331462846B8470130EED1D8E601234A464A
:406E000031462846B84701303FF4D1AE08F10108E3680F9A9B1A9845F0DBE0680F9B9842B8BF18465DE062680EA8531C0DF1340E4BF480637FF474AE062201E012B901227D
:406E4000626075E6002106910DF133018DE80C00236005904246CDF81090CDF80CE0029153462846FFF76BFD80460D9BD81C02DB626893421DDDA9F102095FFA89F970E62E
:406E80000133236184E6B9F1660F14D10029636807DD216113B92268D2071DD501330B4419E013B92268D00701D5023313E0012311E04FF067090D9B0E9A934205DB226837
:406EC0002361D10708D5013305E0002BD4BFC3F102030123134423610D9B4FF0000AA36556E611B0BDE8F08F2DE9F04791461F460A698B6806469342B8BF1346C9F80030DF
:406F000091F843200C46DDF8208012B10133C9F800302368990642BFD9F800300233C9F80030256815F0060510D104F1190A07E00123524639463046C04701301AD00135DE
:406F4000E368D9F800209B1A9D42F1DB94F843302268003318BF012392060FD5E118302081F843005A1C94F845102244023382F8431003E04FF0FF30BDE8F08704F14302D7
:406F800039463046C0470130F4D02268D9F80050E36802F00602042A08BF5D1B2269A3680CBF25EAE57500259342C4BF9B1AED184FF000091A344D4509D001232246394676
:406FC0003046C0470130D5D009F10109F3E70020BDE8F0872DE9F04317460A7E85B06E2A984606460C460C9B01F1430E00F0AE8011D8632A22D009D8002A00F0BB80582A85
:4070000040F0CA8081F84520834955E0642A1ED0692A1CD0C0E0732A00F0B08009D86F2A2ED0702A40F0B8800A6842F020020A603EE0752A24D0782A3AD0ADE01A6801F197
:407040004205111D1960136884F84230A8E021681A6811F0800F02D0111D196008E011F0400F02F10401196002D0B2F9003000E01368002B3CDA2D225B4284F8432037E049
:4070800021681A6811F0800F02D0111D196007E011F0400F02F10401196001D0138800E01368227E5C496F2A14BF0A2208221BE078225A4984F845202268186812F0800F92
:4070C00000F104051D6003D1550601D5038800E00368D00744BF42F0200222601BB9226822F0200222601022002084F8430001E049490A226568002DA56008DB206820F050
:40710000040020602BB9002D7DD175460CE0002B79D07546B3FBF2F002FB1033CB5C05F8013D03460028F5D1082A0BD12368DA0708D5236962689A42DEBF302305F8013C7A
:4071400005F1FF35C5EB0E0323612EE008681A6810F0800F496903D0101D1860136808E010F0400F02F104001860136801D0198000E0196000232361754616E01A68111D80
:407180001960156800216268284600F0A5FE08B1401B6060636804E004F1420584F8422001232361002384F84330CDF800803B4603AA21463046FFF797FE013002D14FF078
:4071C000FF3026E023692A4639463046C0470130F5D023689B0710D5002504F1190907E001234A4639463046C0470130E7D00135E368039A9B1A9D42F2DBE068039B984260
:40720000B8BF184605E00B7804F1420584F842308AE705B0BDE8F083C68C0000D78C00000EB400B54FF402719CB0ADF814106FF00041049107914FF6FF711DAB0290069040
